{
  "_format": "hh-sol-artifact-1",
  "contractName": "Ballot",
  "sourceName": "contracts/Voting.sol",
  "abi": [
    {
      "inputs": [],
      "stateMutability": "nonpayable",
      "type": "constructor"
    },
    {
      "inputs": [
        {
          "internalType": "uint256",
          "name": "",
          "type": "uint256"
        }
      ],
      "name": "candidates",
      "outputs": [
        {
          "internalType": "string",
          "name": "name",
          "type": "string"
        },
        {
          "internalType": "uint256",
          "name": "voteCount",
          "type": "uint256"
        }
      ],
      "stateMutability": "view",
      "type": "function"
    },
    {
      "inputs": [],
      "name": "endVotingSession",
      "outputs": [],
      "stateMutability": "nonpayable",
      "type": "function"
    },
    {
      "inputs": [],
      "name": "getCandidatesNames",
      "outputs": [
        {
          "internalType": "string[]",
          "name": "",
          "type": "string[]"
        }
      ],
      "stateMutability": "view",
      "type": "function"
    },
    {
      "inputs": [],
      "name": "getCurrentState",
      "outputs": [
        {
          "internalType": "string",
          "name": "",
          "type": "string"
        }
      ],
      "stateMutability": "view",
      "type": "function"
    },
    {
      "inputs": [
        {
          "internalType": "address",
          "name": "voter",
          "type": "address"
        }
      ],
      "name": "giveRightToVote",
      "outputs": [],
      "stateMutability": "nonpayable",
      "type": "function"
    },
    {
      "inputs": [
        {
          "internalType": "string",
          "name": "candidateName",
          "type": "string"
        }
      ],
      "name": "registerCandidate",
      "outputs": [],
      "stateMutability": "nonpayable",
      "type": "function"
    },
    {
      "inputs": [],
      "name": "startRegisteringCandidates",
      "outputs": [],
      "stateMutability": "nonpayable",
      "type": "function"
    },
    {
      "inputs": [],
      "name": "startRegisteringVoters",
      "outputs": [],
      "stateMutability": "nonpayable",
      "type": "function"
    },
    {
      "inputs": [],
      "name": "startVotingSession",
      "outputs": [],
      "stateMutability": "nonpayable",
      "type": "function"
    },
    {
      "inputs": [],
      "name": "state",
      "outputs": [
        {
          "internalType": "enum Ballot.State",
          "name": "",
          "type": "uint8"
        }
      ],
      "stateMutability": "view",
      "type": "function"
    },
    {
      "inputs": [],
      "name": "tallyVotes",
      "outputs": [
        {
          "internalType": "string",
          "name": "winnerName",
          "type": "string"
        }
      ],
      "stateMutability": "view",
      "type": "function"
    },
    {
      "inputs": [
        {
          "internalType": "uint256",
          "name": "candidate",
          "type": "uint256"
        }
      ],
      "name": "vote",
      "outputs": [],
      "stateMutability": "nonpayable",
      "type": "function"
    },
    {
      "inputs": [
        {
          "internalType": "address",
          "name": "",
          "type": "address"
        }
      ],
      "name": "voters",
      "outputs": [
        {
          "internalType": "bool",
          "name": "rightToVote",
          "type": "bool"
        },
        {
          "internalType": "bool",
          "name": "voted",
          "type": "bool"
        }
      ],
      "stateMutability": "view",
      "type": "function"
    }
  ],
  "bytecode": "0x608060405234801561001057600080fd5b50336000806101000a81548173ffffffffffffffffffffffffffffffffffffffff021916908373ffffffffffffffffffffffffffffffffffffffff16021790555060018060008060009054906101000a900473ffffffffffffffffffffffffffffffffffffffff1673ffffffffffffffffffffffffffffffffffffffff1673ffffffffffffffffffffffffffffffffffffffff16815260200190815260200160002060000160006101000a81548160ff0219169083151502179055506000600460006101000a81548160ff02191690836004811115610118577f4e487b7100000000000000000000000000000000000000000000000000000000600052602160045260246000fd5b021790555061225d8061012c6000396000f3fe608060405234801561001057600080fd5b50600436106100cf5760003560e01c80639eb88db61161008c578063c19d93fb11610066578063c19d93fb146101ee578063c3ce2a921461020c578063c8e999b814610216578063ee74c67814610220576100cf565b80639eb88db614610197578063a3ec138d146101b3578063a7bfab16146101e4576100cf565b80630121b93f146100d4578063185fd225146100f05780633477ee2e1461010e578063378a21781461013f578063378aa7011461015d5780639e7b8d611461017b575b600080fd5b6100ee60048036038101906100e991906118e0565b61022a565b005b6100f8610471565b6040516101059190611b6c565b60405180910390f35b610128600480360381019061012391906118e0565b61054a565b604051610136929190611bf4565b60405180910390f35b610147610606565b6040516101549190611bd2565b60405180910390f35b6101656108f8565b6040516101729190611bd2565b60405180910390f35b61019560048036038101906101909190611876565b610cb7565b005b6101b160048036038101906101ac919061189f565b610efa565b005b6101cd60048036038101906101c89190611876565b611065565b6040516101db929190611b8e565b60405180910390f35b6101ec6110a3565b005b6101f6611245565b6040516102039190611bb7565b60405180910390f35b610214611258565b005b61021e6113fb565b005b61022861159e565b005b60036004811115610264577f4e487b7100000000000000000000000000000000000000000000000000000000600052602160045260246000fd5b600460009054906101000a900460ff1660048111156102ac577f4e487b7100000000000000000000000000000000000000000000000000000000600052602160045260246000fd5b146102ec576040517f08c379a00000000000000000000000000000000000000000000000000000000081526004016102e390611ca4565b60405180910390fd5b6000600160003373ffffffffffffffffffffffffffffffffffffffff1673ffffffffffffffffffffffffffffffffffffffff16815260200190815260200160002090508060000160019054906101000a900460ff1615610381576040517f08c379a000000000000000000000000000000000000000000000000000000000815260040161037890611c64565b60405180910390fd5b8060000160009054906101000a900460ff166103d2576040517f08c379a00000000000000000000000000000000000000000000000000000000081526004016103c990611c44565b60405180910390fd5b60018160000160016101000a81548160ff02191690831515021790555060028281548110610429577f4e487b7100000000000000000000000000000000000000000000000000000000600052603260045260246000fd5b9060005260206000209060020201600101600081548092919061044b90611f12565b919050555060008160000160006101000a81548160ff0219169083151502179055505050565b60606003805480602002602001604051908101604052809291908181526020016000905b828210156105415783829060005260206000200180546104b490611eaf565b80601f01602080910402602001604051908101604052809291908181526020018280546104e090611eaf565b801561052d5780601f106105025761010080835404028352916020019161052d565b820191906000526020600020905b81548152906001019060200180831161051057829003601f168201915b505050505081526020019060010190610495565b50505050905090565b6002818154811061055a57600080fd5b906000526020600020906002020160009150905080600001805461057d90611eaf565b80601f01602080910402602001604051908101604052809291908181526020018280546105a990611eaf565b80156105f65780601f106105cb576101008083540402835291602001916105f6565b820191906000526020600020905b8154815290600101906020018083116105d957829003601f168201915b5050505050908060010154905082565b606060008054906101000a900473ffffffffffffffffffffffffffffffffffffffff1673ffffffffffffffffffffffffffffffffffffffff163373ffffffffffffffffffffffffffffffffffffffff1614610696576040517f08c379a000000000000000000000000000000000000000000000000000000000815260040161068d90611c84565b60405180910390fd5b6004808111156106cf577f4e487b7100000000000000000000000000000000000000000000000000000000600052602160045260246000fd5b600460009054906101000a900460ff166004811115610717577f4e487b7100000000000000000000000000000000000000000000000000000000600052602160045260246000fd5b14610757576040517f08c379a000000000000000000000000000000000000000000000000000000000815260040161074e90611d04565b60405180910390fd5b6000805b6002805490508110156108f35781600282815481106107a3577f4e487b7100000000000000000000000000000000000000000000000000000000600052603260045260246000fd5b90600052602060002090600202016001015411156108e057600281815481106107f5577f4e487b7100000000000000000000000000000000000000000000000000000000600052603260045260246000fd5b906000526020600020906002020160010154915060028181548110610843577f4e487b7100000000000000000000000000000000000000000000000000000000600052603260045260246000fd5b9060005260206000209060020201600001805461085f90611eaf565b80601f016020809104026020016040519081016040528092919081815260200182805461088b90611eaf565b80156108d85780601f106108ad576101008083540402835291602001916108d8565b820191906000526020600020905b8154815290600101906020018083116108bb57829003601f168201915b505050505092505b80806108eb90611f12565b91505061075b565b505090565b60606000600460009054906101000a900460ff16905060006004811115610948577f4e487b7100000000000000000000000000000000000000000000000000000000600052602160045260246000fd5b816004811115610981577f4e487b7100000000000000000000000000000000000000000000000000000000600052602160045260246000fd5b14156109c5576040518060400160405280600d81526020017f496e697469616c20537461746500000000000000000000000000000000000000815250915050610cb4565b600160048111156109ff577f4e487b7100000000000000000000000000000000000000000000000000000000600052602160045260246000fd5b816004811115610a38577f4e487b7100000000000000000000000000000000000000000000000000000000600052602160045260246000fd5b1415610a7c576040518060400160405280601681526020017f5265676973746572696e672043616e6469646174657300000000000000000000815250915050610cb4565b60026004811115610ab6577f4e487b7100000000000000000000000000000000000000000000000000000000600052602160045260246000fd5b816004811115610aef577f4e487b7100000000000000000000000000000000000000000000000000000000600052602160045260246000fd5b1415610b33576040518060400160405280601281526020017f5265676973746572696e6720566f746572730000000000000000000000000000815250915050610cb4565b60036004811115610b6d577f4e487b7100000000000000000000000000000000000000000000000000000000600052602160045260246000fd5b816004811115610ba6577f4e487b7100000000000000000000000000000000000000000000000000000000600052602160045260246000fd5b1415610bea576040518060400160405280600e81526020017f566f74696e672053657373696f6e000000000000000000000000000000000000815250915050610cb4565b600480811115610c23577f4e487b7100000000000000000000000000000000000000000000000000000000600052602160045260246000fd5b816004811115610c5c577f4e487b7100000000000000000000000000000000000000000000000000000000600052602160045260246000fd5b1415610ca0576040518060400160405280600681526020017f436c6f7365640000000000000000000000000000000000000000000000000000815250915050610cb4565b604051806020016040528060008152509150505b90565b60026004811115610cf1577f4e487b7100000000000000000000000000000000000000000000000000000000600052602160045260246000fd5b600460009054906101000a900460ff166004811115610d39577f4e487b7100000000000000000000000000000000000000000000000000000000600052602160045260246000fd5b14610d79576040517f08c379a0000000000000000000000000000000000000000000000000000000008152600401610d7090611ce4565b60405180910390fd5b60008054906101000a900473ffffffffffffffffffffffffffffffffffffffff1673ffffffffffffffffffffffffffffffffffffffff163373ffffffffffffffffffffffffffffffffffffffff1614610e07576040517f08c379a0000000000000000000000000000000000000000000000000000000008152600401610dfe90611c84565b60405180910390fd5b60001515600160008373ffffffffffffffffffffffffffffffffffffffff1673ffffffffffffffffffffffffffffffffffffffff16815260200190815260200160002060000160009054906101000a900460ff16151514610e9d576040517f08c379a0000000000000000000000000000000000000000000000000000000008152600401610e9490611d24565b60405180910390fd5b60018060008373ffffffffffffffffffffffffffffffffffffffff1673ffffffffffffffffffffffffffffffffffffffff16815260200190815260200160002060000160006101000a81548160ff02191690831515021790555050565b60016004811115610f34577f4e487b7100000000000000000000000000000000000000000000000000000000600052602160045260246000fd5b600460009054906101000a900460ff166004811115610f7c577f4e487b7100000000000000000000000000000000000000000000000000000000600052602160045260246000fd5b14610fbc576040517f08c379a0000000000000000000000000000000000000000000000000000000008152600401610fb390611c24565b60405180910390fd5b60026040518060400160405280838152602001600081525090806001815401808255809150506001900390600052602060002090600202016000909190919091506000820151816000019080519060200190611019929190611741565b50602082015181600101555050600381908060018154018082558091505060019003906000526020600020016000909190919091509080519060200190611061929190611741565b5050565b60016020528060005260406000206000915090508060000160009054906101000a900460ff16908060000160019054906101000a900460ff16905082565b60008054906101000a900473ffffffffffffffffffffffffffffffffffffffff1673ffffffffffffffffffffffffffffffffffffffff163373ffffffffffffffffffffffffffffffffffffffff1614611131576040517f08c379a000000000000000000000000000000000000000000000000000000000815260040161112890611c84565b60405180910390fd5b6003600481111561116b577f4e487b7100000000000000000000000000000000000000000000000000000000600052602160045260246000fd5b600460009054906101000a900460ff1660048111156111b3577f4e487b7100000000000000000000000000000000000000000000000000000000600052602160045260246000fd5b146111f3576040517f08c379a00000000000000000000000000000000000000000000000000000000081526004016111ea90611ca4565b60405180910390fd5b60048060006101000a81548160ff0219169083600481111561123e577f4e487b7100000000000000000000000000000000000000000000000000000000600052602160045260246000fd5b0217905550565b600460009054906101000a900460ff1681565b60008054906101000a900473ffffffffffffffffffffffffffffffffffffffff1673ffffffffffffffffffffffffffffffffffffffff163373ffffffffffffffffffffffffffffffffffffffff16146112e6576040517f08c379a00000000000000000000000000000000000000000000000000000000081526004016112dd90611c84565b60405180910390fd5b60006004811115611320577f4e487b7100000000000000000000000000000000000000000000000000000000600052602160045260246000fd5b600460009054906101000a900460ff166004811115611368577f4e487b7100000000000000000000000000000000000000000000000000000000600052602160045260246000fd5b146113a8576040517f08c379a000000000000000000000000000000000000000000000000000000000815260040161139f90611cc4565b60405180910390fd5b6001600460006101000a81548160ff021916908360048111156113f4577f4e487b7100000000000000000000000000000000000000000000000000000000600052602160045260246000fd5b0217905550565b60008054906101000a900473ffffffffffffffffffffffffffffffffffffffff1673ffffffffffffffffffffffffffffffffffffffff163373ffffffffffffffffffffffffffffffffffffffff1614611489576040517f08c379a000000000000000000000000000000000000000000000000000000000815260040161148090611c84565b60405180910390fd5b600160048111156114c3577f4e487b7100000000000000000000000000000000000000000000000000000000600052602160045260246000fd5b600460009054906101000a900460ff16600481111561150b577f4e487b7100000000000000000000000000000000000000000000000000000000600052602160045260246000fd5b1461154b576040517f08c379a000000000000000000000000000000000000000000000000000000000815260040161154290611c24565b60405180910390fd5b6002600460006101000a81548160ff02191690836004811115611597577f4e487b7100000000000000000000000000000000000000000000000000000000600052602160045260246000fd5b0217905550565b60008054906101000a900473ffffffffffffffffffffffffffffffffffffffff1673ffffffffffffffffffffffffffffffffffffffff163373ffffffffffffffffffffffffffffffffffffffff161461162c576040517f08c379a000000000000000000000000000000000000000000000000000000000815260040161162390611c84565b60405180910390fd5b60026004811115611666577f4e487b7100000000000000000000000000000000000000000000000000000000600052602160045260246000fd5b600460009054906101000a900460ff1660048111156116ae577f4e487b7100000000000000000000000000000000000000000000000000000000600052602160045260246000fd5b146116ee576040517f08c379a00000000000000000000000000000000000000000000000000000000081526004016116e590611ce4565b60405180910390fd5b6003600460006101000a81548160ff0219169083600481111561173a577f4e487b7100000000000000000000000000000000000000000000000000000000600052602160045260246000fd5b0217905550565b82805461174d90611eaf565b90600052602060002090601f01602090048101928261176f57600085556117b6565b82601f1061178857805160ff19168380011785556117b6565b828001600101855582156117b6579182015b828111156117b557825182559160200191906001019061179a565b5b5090506117c391906117c7565b5090565b5b808211156117e05760008160009055506001016117c8565b5090565b60006117f76117f284611d69565b611d44565b90508281526020810184848401111561180f57600080fd5b61181a848285611e6d565b509392505050565b600081359050611831816121f9565b92915050565b600082601f83011261184857600080fd5b81356118588482602086016117e4565b91505092915050565b60008135905061187081612210565b92915050565b60006020828403121561188857600080fd5b600061189684828501611822565b91505092915050565b6000602082840312156118b157600080fd5b600082013567ffffffffffffffff8111156118cb57600080fd5b6118d784828501611837565b91505092915050565b6000602082840312156118f257600080fd5b600061190084828501611861565b91505092915050565b600061191583836119b0565b905092915050565b600061192882611daa565b6119328185611dcd565b93508360208202850161194485611d9a565b8060005b8581101561198057848403895281516119618582611909565b945061196c83611dc0565b925060208a01995050600181019050611948565b50829750879550505050505092915050565b61199b81611e12565b82525050565b6119aa81611e5b565b82525050565b60006119bb82611db5565b6119c58185611dde565b93506119d5818560208601611e7c565b6119de81612017565b840191505092915050565b60006119f482611db5565b6119fe8185611def565b9350611a0e818560208601611e7c565b611a1781612017565b840191505092915050565b6000611a2f602383611def565b9150611a3a82612028565b604082019050919050565b6000611a52601483611def565b9150611a5d82612077565b602082019050919050565b6000611a75600e83611def565b9150611a80826120a0565b602082019050919050565b6000611a98602d83611def565b9150611aa3826120c9565b604082019050919050565b6000611abb601c83611def565b9150611ac682612118565b602082019050919050565b6000611ade601b83611def565b9150611ae982612141565b602082019050919050565b6000611b01602083611def565b9150611b0c8261216a565b602082019050919050565b6000611b24601a83611def565b9150611b2f82612193565b602082019050919050565b6000611b47601d83611def565b9150611b52826121bc565b602082019050919050565b611b6681611e51565b82525050565b60006020820190508181036000830152611b86818461191d565b905092915050565b6000604082019050611ba36000830185611992565b611bb06020830184611992565b9392505050565b6000602082019050611bcc60008301846119a1565b92915050565b60006020820190508181036000830152611bec81846119e9565b905092915050565b60006040820190508181036000830152611c0e81856119e9565b9050611c1d6020830184611b5d565b9392505050565b60006020820190508181036000830152611c3d81611a22565b9050919050565b60006020820190508181036000830152611c5d81611a45565b9050919050565b60006020820190508181036000830152611c7d81611a68565b9050919050565b60006020820190508181036000830152611c9d81611a8b565b9050919050565b60006020820190508181036000830152611cbd81611aae565b9050919050565b60006020820190508181036000830152611cdd81611ad1565b9050919050565b60006020820190508181036000830152611cfd81611af4565b9050919050565b60006020820190508181036000830152611d1d81611b17565b9050919050565b60006020820190508181036000830152611d3d81611b3a565b9050919050565b6000611d4e611d5f565b9050611d5a8282611ee1565b919050565b6000604051905090565b600067ffffffffffffffff821115611d8457611d83611fe8565b5b611d8d82612017565b9050602081019050919050565b6000819050602082019050919050565b600081519050919050565b600081519050919050565b6000602082019050919050565b600082825260208201905092915050565b600082825260208201905092915050565b600082825260208201905092915050565b6000611e0b82611e31565b9050919050565b60008115159050919050565b6000819050611e2c826121e5565b919050565b600073ffffffffffffffffffffffffffffffffffffffff82169050919050565b6000819050919050565b6000611e6682611e1e565b9050919050565b82818337600083830152505050565b60005b83811015611e9a578082015181840152602081019050611e7f565b83811115611ea9576000848401525b50505050565b60006002820490506001821680611ec757607f821691505b60208210811415611edb57611eda611fb9565b5b50919050565b611eea82612017565b810181811067ffffffffffffffff82111715611f0957611f08611fe8565b5b80604052505050565b6000611f1d82611e51565b91507fffffffffffffffffffffffffffffffffffffffffffffffffffffffffffffffff821415611f5057611f4f611f5b565b5b600182019050919050565b7f4e487b7100000000000000000000000000000000000000000000000000000000600052601160045260246000fd5b7f4e487b7100000000000000000000000000000000000000000000000000000000600052602160045260246000fd5b7f4e487b7100000000000000000000000000000000000000000000000000000000600052602260045260246000fd5b7f4e487b7100000000000000000000000000000000000000000000000000000000600052604160045260246000fd5b6000601f19601f8301169050919050565b7f6974206d75737420626520696e205265676973746572696e672043616e64696460008201527f6174650000000000000000000000000000000000000000000000000000000000602082015250565b7f486173206e6f20726967687420746f20766f7465000000000000000000000000600082015250565b7f416c726561647920766f7465642e000000000000000000000000000000000000600082015250565b7f4f6e6c79206368616972706572736f6e2063616e20737461727420616e64206560008201527f6e642074686520766f74696e6700000000000000000000000000000000000000602082015250565b7f6974206d75737420626520696e20566f74696e672053657373696f6e00000000600082015250565b7f6974206d75737420626520696e20496e697469616c2053746174650000000000600082015250565b7f6974206d75737420626520696e205265676973746572696e6720566f74657273600082015250565b7f6974206d75737420626520696e20436c6f736564207374617465000000000000600082015250565b7f48617320616c72656164792074686520726967687420746f20766f7465000000600082015250565b600581106121f6576121f5611f8a565b5b50565b61220281611e00565b811461220d57600080fd5b50565b61221981611e51565b811461222457600080fd5b5056fea2646970667358221220aecdb64903ca2c8c512c344ce1bd292662c3db89006795b8efc1e692947e5dcb64736f6c63430008040033",
  "linkReferences": {},
  "deployedLinkReferences": {}
}